:10000000804200201583000011830000118300004E
:1000100000000000000000000000000000000000E0
:10002000000000000000000000000000118300003C
:100030000000000000000000118300001183000098
:1000400011830000118300009D680000DD63000043
:100050001183000011830000118300001183000050
:10006000CD6C0000DD6C0000ED6C0000FD6C00004C
:100070000D6D00001D6D0000118300001183000054
:1000800011830000F97E0000097F000000000000DD
:1000900000000000197F00001183000011830000A0
:1000A00000000000118300000000000000000000BC
:1000B0000000000000000000000000000000000040
:1000C0000000000000000000000000000000000030
:1000D0000000000000000000000000000000000020
:1000E0000000000000000000000000000000000010
:1061000007000100EA03002000000000000000007A
:1061100006003200442200200000000000000000C1
:10612000050001000B00002000000000000000003E
:10613000040001000D00002000000000000000002D
:106140000300080010000020000000000000000014
:1061500002000200B41F0020000000000000000048
:1061600001000400081E00200000000000000000E4
:106170007C1601000700014010B5064C2378002B67
:1061800007D1054B002B02D0044800E000BF0123DB
:10619000237010BD9C00002000000000D01A0100F8
:1061A000084B10B5002B03D00749084800E000BF9A
:1061B00007480368002B00D110BD064B002BFBD015
:1061C0009847F9E700000000A0000020D01A010065
:1061D000D01A01000000000070B50020084B98475D
:1061E0000500084CFA218900A047074B18600749B1
:1061F0002800A047064B18600522064B1A6070BDA8
:10620000297C00006DEC00000000002040420F00DF
:106210000400002010E000E030B5084B1C68084A7C
:10622000002580214902013807D3002CFBD054609F
:10623000956013680B42FCD0F5E730BD04000020E8
:1062400010E000E00C4B1B68002B06D1EFF310832D
:10625000002B07D00022094B1A70074A136801333C
:106260001360704772B6BFF35F8F0022044B1A7041
:106270000132024B1A70F0E7B8000020BC00002089
:1062800008000020084B1A68013A1A601B68002BAE
:1062900009D1064B1B78002B05D00122044B1A7044
:1062A000BFF35F8F62B67047B8000020BC000020CB
:1062B00008000020F0B5CE46474680B583B001AC5B
:1062C000012666700027A770267021000E20234D3E
:1062D000A847234B98468023DB01424693612670F2
:1062E00021001220A8478023DB02994643464A46F4
:1062F0009A612770667021000720A8476670A77012
:10630000267021005220A84721003E20A8472100E6
:106310003F20A84721002F20A84721001420A8478C
:10632000104B4A469A61104B8022D2059A61802216
:1063300012069A61802636029E6180235B034246E4
:106340009361277021005320A847084BDA69164350
:10635000DE6103B00CBC90469946F0BD7968000040
:106360000028004000290040802800400004004030
:106370001723002A01D0180070478B00064A9B584B
:10638000002B03D0834205D01D23F4E789008850F9
:106390000023F0E70023EEE7CC1C002017230029A0
:1063A00001D01800704700221F2800D8024A01239C
:1063B000834013610023F4E70024004017230029E1
:1063C00001D01800704700221F2800D8024A01237C
:1063D0008340D3600023F4E70024004070B500221E
:1063E000104B1A70002310491F25104E0D4C0AE067
:1063F0000D4908E023780133DBB223700F2B10D84E
:1064000000211F2BF4D9280018400122824048693E
:106410001042EFD04A619B009B59002BEAD098476D
:10642000E8E770BDC81C002000240040CC1C002000
:10643000064A137802210B43137001205368194256
:10644000FCD153681842F9D17047C046002400407F
:10645000064A137802218B431370012053681942B6
:10646000FCD153681842F9D17047C046002400405F
:1064700000B583B0174A516980239B000B435361D9
:1064800001A900230B700320134B98470320134BE3
:106490009847134A137801210B43137001310120EF
:1064A00053681942FCD153681842F9D10C4A137849
:1064B00010218B4313700B4B19004031002204C391
:1064C0008B42FCD10822084B1A60084B984703B056
:1064D00000BDC04600040040057D0000957C000022
:1064E00000240040CC1C002000E100E031640000EA
:1064F0000023036043600122027283720132C27280
:1065000043727047F0B583B005000C001C4B9847F0
:1065100001A900234B70CB7023790B70237A8B7009
:106520002078184B984700211F2D00D816490722C4
:106530002A409200E77AA37A002B01D008231F4358
:10654000EB089B00CB18D8690F269640B0439740C4
:106550003A000243DA61637A002B0BD18A69012386
:10656000AB40DB431B041B0C13408B61074B98476C
:1065700003B0F0BD8A690123AB4013438B61F5E79B
:1065800051640000017E00000024004031640000DE
:1065900010B51E4A936904210B4393611C4B2022C2
:1065A000FF321A831A7D0523D20701D4180010BDCB
:1065B00003781B02C022920013404178C901FF22D8
:1065C0000A401343817849001E220A401343C278CF
:1065D00092048021C9020A40134302791204C021A7
:1065E00089020A4013430A4A536093685B035B0FB6
:1065F000084908249C400C8093684B8043780B71B9
:10660000138BDB05DB0F1B01D0E7C0460004004005
:1066100000400041C000002030B5304A1488538843
:1066200063438B420BD2802292012D4BCB189342B5
:1066300005D92C4C18232C4A8A18A2420ED82B4B71
:106640005C688022D20222435A602022FF321A83E1
:106650001B7DDB0704D4254B5C600523180030BD8F
:10666000452829D88300224AD3589F461F4B1B8BAD
:10667000DB0503D51D4B5C601023EFE7890849005B
:106680001A4BD96103E089084900184BD961FD23F1
:1066900005001A3D1D4013D0A5231B021843134BC0
:1066A0001880190001220B7D1342FCD0002D0FD061
:1066B0000E4B5C600023D1E70C4B5C601723CDE7E9
:1066C0000A4B59688022D2020A435A605B68E3E7AA
:1066D000064A536807490B405360E9E7C0000020B1
:1066E00000C07FFFFF1F00000000C0FF004000410E
:1066F000C40D0100FFFFFBFFF8B52F4B1C885B8822
:106700006343834207D22D4E18252D4BC318B34245
:1067100006D8012600E00026631E1825184201D085
:106720002800F8BD013D9442FAD3264B1B7D123D53
:10673000DB07F5D5244C234B1C801D0001242B7D49
:106740002342FCD02024FF341E4B1C83002A2CD073
:10675000012305009D430023541EA44609E0CF18E1
:106760007F783F023C432C8002339BB202359A4231
:1067700004D9CC5C6345F2DBA4B2F4E70E4B1B7981
:106780000025002BCCD13F2ACAD8002E06D10022EA
:10679000010004200D4B98470500C1E700220100CD
:1067A0001C200A4B98470500BAE7034B1B790025CC
:1067B000002BEAD0B4E7C046C0000020FF1F000055
:1067C0000000C0FF0040004144A5FFFF1966000023
:1067D00010B5224A138852885A43824207D2204C6D
:1067E000182220494118A14207D8012400E00024C2
:1067F0009B00013B1822184201D0100010BD1A4B1B
:106800001B7D133ADB07F8D5174B2022FF321A8382
:1068100080084000D861002C1BD059688022D20229
:106820000A435A605A68114A1A800F4901220B7DA7
:106830001342FCD0002C04D00B4A53680C490B4087
:106840005360094B1A8B1C200240501E824192005B
:10685000D3E7084A044B1A80E7E7C046C00000208F
:10686000FF1F00000000C0FF004000411AA5FFFF0D
:10687000FFFFFBFF02A5FFFF00B583B001AB802245
:106880001A700A785A704A789A708A78DA70190001
:10689000014B984703B000BD017E0000F8B5DE460D
:1068A00057464E464546E0B52B4B1B689A461E6838
:1068B000DB8E5246928E1A409046B28973891340FD
:1068C0001AB2002A08DBFF271F402AD00024012328
:1068D0009946FE339B4614E043465B0507D41F4BA5
:1068E000B3813CBC90469946A246AB46F8BD5346A0
:1068F0001B6B9847F3E75B461D40B5810134082CBC
:10690000EFD023004D46A5402F42F4D0424622410D
:1069100049461142EFD002339B0052469B5898479C
:10692000E9E7DA050AD54346DB0503D480235B009B
:10693000B381D6E753469B6A9847F7E79B05D0D5C6
:1069400043469B0503D480239B00B381C9E753468C
:10695000DB6A9847F7E7C0460C1D00200080FFFF68
:10696000F0B5DE4657464E464546E0B587B0804610
:10697000049116001F000022002300218B463F24B3
:1069800001202100009601975C460394444605943B
:1069900013E02024641A0500E540A84614E0009C9A
:1069A000019D121BAB415C464D462C43A346039C04
:1069B00045462C430394013925D3202464420C1905
:1069C000E7D40500A540A84604008C40A1469218D3
:1069D0005B4114001D00059E4F463E40B446049E98
:1069E00047463E40B246664657463E4303D0060001
:1069F000264332002B00009C019D9D42DBD8CED166
:106A00009442D8D8CBE7039B5846190007B03CBC4A
:106A100090469946A246AB46F0BD10B549084023C2
:106A20000024814202D2180010BD1C00091A631C08
:106A30009BB28842F9D94023FF2CF4D8148000235C
:106A4000F1E7FFFFF0B583B00F00160008AA117838
:106A500004004C434022BC4202D9100003B0F0BDF8
:106A6000002B14D1020008000021194CA04701009E
:106A70003A0000230020174CA04700220123121ADD
:106A80008B41120C1B041A4332800022E5E70022DE
:106A9000012BF9D10A00002300210D4CA047020070
:106AA0000B0000920193380000210A4CA04705001A
:106AB00080239B0140229842CFD8790FF800009A9A
:106AC000019BA047EA00821AD2B252032A43DBE7B5
:106AD000CDEF00006169000010B582B004000E4BDC
:106AE0001B78002B07D0002905D10B4B5B78834224
:106AF00010D01D200CE001A90C701120074B984705
:106B00001120074B9847044B5C7001221A7000203B
:106B100002B010BD0020FBE7C8000020057D00008A
:106B2000957C00002C4B984226D00AD92B4B9842DA
:106B30003AD02B4B984241D02A4B984224D0002087
:106B400070478423DB05984208D0274B9842F6D142
:106B500002290DD003290DD00020F1E7022903D02E
:106B6000032903D00020EBE72048E9E72048E7E7C6
:106B70002048E5E72048E3E7012903D0002927D092
:106B80000020DDE71D48DBE7012907D0002921D0DF
:106B9000022905D0032905D00020D1E71848CFE706
:106BA0001848CDE71848CBE7022903D0032903D0C2
:106BB0000020C5E71548C3E71548C1E7022903D0FF
:106BC000032903D00020BBE71248B9E71248B7E712
:106BD0001248B5E71248B3E700080042001000422F
:106BE00000040043000C00420004004203000600C1
:106BF0000300070003001E0003001F00030009003C
:106C000003001100030012000300130003000E0034
:106C100003000F0003001800030019000300080020
:106C20000300100030B587B00B4B6A4632CB32C23E
:106C300032CB32C2009B83420BD001239A006946BB
:106C40005258824206D00133062BF7D1002007B0FC
:106C500030BD0023D8B2FAE7DC0E01007047FFFF19
:106C6000F0B50A4B1B78002B0CD1094F094E0A4D89
:106C70000024DE515A1914600433182BF9D1012273
:106C8000024B1A708000024BC150F0BDCA000020B8
:106C9000CC0000205D6C0000101D002000B583B00A
:106CA00008236A4613700133537001339370013324
:106CB000D3700133137101335371034B98476B4603
:106CC000185603B000BDC046256C000010B5024B3D
:106CD0001B680020984710BDCC00002010B5024B67
:106CE0005B680120984710BDCC00002010B5024B16
:106CF0009B680220984710BDCC00002010B5024BC5
:106D0000DB680320984710BDCC00002010B5024B73
:106D10001B690420984710BDCC00002010B5024B21
:106D20005B690520984710BDCC000020F0B5D64621
:106D30004F464646C0B58AB006000F0014003160C9
:106D40000B689B070AD40B680520DB0700D497E08B
:106D50000AB01CBC90469946A246F0BD936A0593C2
:106D6000D36A0693136B0793536B089300250AE0CD
:106D700038009A4B98470EE00F231840814530D1D8
:106D80000135042D31D0E9B2AB0002AA0C20121853
:106D9000D0580028ECD0431CF2D001040B0C9946CB
:106DA000000CC3B29C460023020605D463465B096F
:106DB000DB018B4A904643441F22604602409818EC
:106DC00040300078824680205146C907D6D5520807
:106DD0009B1830331878C0B26346DB07CCD5000966
:106DE000CCE7002333601C20B2E711207D4B98478D
:106DF00022780025012A26D06368A2681343E2683E
:106E000013432B43227C617C002901D080210B435A
:106E1000A17C002902D0802189020A43E17C00295B
:106E200002D0802189000A43217D002902D08021DF
:106E300089010A433968022003438B4217D000239B
:106E400033601C2084E704AA0100A069664B9847C0
:106E500003001720002B00D07AE73B7BDBB204AAAB
:106E6000127805309A4200D072E70C35C4E77B688F
:106E70009342E4D123787371237CB371002067E7D8
:106E800008005A4B9847052800D19FE003001233B1
:106E90005749CD69012282402A43CA6109A92425A4
:106EA000625D0A70DBB201931800524B984701985B
:106EB000514B9847605D0021504B98472378012B38
:106EC00019D03368984604AB80221A7000225A7099
:106ED00001219970DA702378002B01D104AB9A70EC
:106EE000A36A0593E36A0693236B0793636B089386
:106EF000002705AD11E03B680C2213433B60E0E73F
:106F00004046364B98470DE004A90870000CC0B20B
:106F10003B4B98470137042F07D0F9B2BB005859B3
:106F20000028EDD0431CEFD1F4E723787371237C64
:106F3000B371A37CF371237D3372002202ABDA803C
:106F40002378012B2AD06368A2681343E2681343B5
:106F5000217C627C002A03D12A4A9278920701D5CB
:106F600080221343A27C002A02D080229202114385
:106F7000E27C002A02D0802292001143227D002A66
:106F800002D08022920111434246126813434246C6
:106F9000136053680B4353600020D9E63068134BED
:106FA00098471230C0B20F4B9847010002AB9A1DB0
:106FB000A0690D4B984703001720002B00D0C7E6AF
:106FC00002AB06331B7842461373BCE7084A136AC8
:106FD00002210B431362182360E7C046256B0000B3
:106FE00000280040297D00001B6A0000256C00007D
:106FF00000040040057D0000957C0000D96A000077
:10700000017E00000020004110B544791523012CB9
:1070100001D0180010BD047A0023002CF9D1002AF9
:1070200058D04B78002B44D003681B7EDB0710D46C
:107030000A78D1090023002904D15309DB012E4924
:107040008C4663441F21114001228A409A61052326
:10705000DFE70A78D4090023002C04D15309DB01AF
:10706000254CA44663441F2414400122A2405A61C7
:1070700003681A7ED20701D58A789A62C279002302
:10708000002AC6D102680421137E0B42FCD0117E77
:1070900000234907BDD5538B5B0701D504235383D8
:1070A0008379012B02D0936A0023B2E7936A00230D
:1070B000AFE70A78D1090023002904D15309DB0185
:1070C0000D498C4663441F21114001228A405A61B8
:1070D00000239EE70A78D1090023002904D153092F
:1070E000DB0105498C4663441F21114001228A407F
:1070F0009A6100238DE7C04600280040F0B5DE46C7
:1071000057464E464546E0B591B005000C001600C6
:1071100029600800C44B9847020005280DD00700DD
:107120001237030021680520C90709D511B03CBCFE
:1071300090469946A246AB46F0BD18270123F1E7D9
:10714000216817308907F1D4052A49D0B749C869A1
:1071500001229A4013000343CB610FA92D239846C7
:10716000F35C0B70FFB23800B14B98473800B14B5D
:1071700098474346F05C0021AF4B9847F37A6B7118
:107180002423F35CAB712523F35CEB71F37E2B724C
:10719000337F6B722B6898461800A34B98470528DD
:1071A00026D0123000220E2306A98C4663441A8092
:1071B000328A02928023DB019A4200D1A7E019D9DA
:1071C000C023DB01029A9A4200D19BE080231B027C
:1071D0009A4200D023E1032306930023079312E091
:1071E0009249086A043A9A40130003430B62B4E7D9
:1071F0001820D7E780239B019A4200D00FE110238B
:1072000006930F3B079333680593F3689B467369B6
:107210000393337E04932623F35C9A46736899465E
:10722000002B00D19BE080235B05994504D12723E7
:10723000F35C002B00D180E0737E002B02D0B37E84
:10724000424693730E2306AA944663441B88424623
:107250009381059B5A461343039A13434A461343AB
:10726000029F1F43049B1B021F4353465B071F43A0
:107270002723F35C002B01D104331F43737E9B0251
:10728000327F52021343727F120213432422B25CF4
:10729000520413432522B25C12041343B17AF27AEA
:1072A000114319433389FF2B7DD0802252041743A9
:1072B00019432C23F35C002B03D1604B9B789B0775
:1072C00001D580231F432A68D369002BFCD1434694
:1072D00059602A68D369002BFCD143461F600EAB6E
:1072E00080221A7000225A70DA709A70336B0A93F7
:1072F000736B0B93B36B0C93F36B02930D9300279B
:107300000AAE5EE008230693073B07937BE73368EA
:107310000593F3689B4673690393337E0493262396
:10732000F35C9A4673689946002B14D080235B0562
:10733000994500D17BE7002020E0336A1F00C0B2EE
:107340003F4B984701000E2206AB9C466244380032
:107350003C4B984712E0082306930023079327230A
:10736000F35C002B0ED0069B0093079B0E2206A910
:107370008C466244B16A306A334FB847002800D067
:10738000D4E659E7336A1F00C0B22D4B984701007D
:10739000069B0093079B0E2206A884466244380091
:1073A000294FB847EAE7F37E002B82D08023DB0425
:1073B0001F437EE72000254B984707E00137042F45
:1073C0000DD0F9B2BB0098590028F3D0431CF5D07A
:1073D0000EA90870000CC0B21D4B9847EEE70023C1
:1073E000EB602B616B61AB61EB612B62AB626B623B
:1073F0000022EB85AB853033EA540133EA54013384
:10740000EA540133EA542868074B984704001149AD
:10741000114B9847A400114BE550002086E610233D
:10742000069300230793EEE6256C0000000400405D
:10743000057D0000957C0000D96A00000020004115
:10744000297D00001B6A0000456A0000256B0000D2
:10745000017E000045760000616C0000101D0020D8
:10746000C2791C23002A01D118007047C28D92B244
:10747000173B002AF8D1026811850221137E0B42C6
:10748000FCD00023F0E782791C23002A01D11800E8
:107490007047828D92B2173B002AF8D10268107EA5
:1074A0004007F4D5538BDBB298061DD0980703D55F
:1074B000022353831833EAE7580703D50423538381
:1074C0001A33E4E7D80703D5012353831233DEE7E9
:1074D000D80603D5102353833233D8E79B0603D550
:1074E000202353832133D2E7138D0B800023CEE773
:1074F000F0B5CE46474680B583B005000191172010
:10750000002A04D103B00CBC90469946F0BDEB793B
:107510000530002BF6D02C68013A93B2994600262C
:107520000127204B984611E0731C9BB2019A915D94
:107530006A79012A17D089B21E0028001A4B984791
:107540004B46013B9BB29946434513D0237E3B42B9
:10755000EAD1144B227E3A42E6D1012B19D0013BED
:10756000002BF7D1E0E70236B6B2019AD35C1B02DA
:107570001943E2E7237E9B070DD40A4B0221227EAA
:107580000A420AD1012B0AD0013B002BF7D100207F
:10759000B8E71220B6E70020B4E70020B2E71220D7
:1075A000B0E7C046FFFF000061740000F0B5D646AA
:1075B00000B584B0040001911720002A03D104B063
:1075C00004BC9246F0BDA3790530002BF7D02668A5
:1075D000013A93B29A460025042719E0002302AA33
:1075E000D380911D2000154B98470028E7D1691CD6
:1075F00089B202ABDB88019A53556279012A14D013
:107600000D005346013B9BB29A460D4B9A45D6D08E
:10761000337E3B42E2D10A4B327E3A42DED1012B2D
:1076200009D0013B002BF7D1D8E70235ADB21B0AD8
:10763000019A5354E5E71220C1E7C0468774000061
:10764000FFFF0000F8B58000624BC5582C68E36965
:10765000002BFCD1237EA67D1E403023EB5C312223
:10766000AF5C1F40F30722D5EB8D9BB2002B1CD0E3
:10767000AA6A1378DBB2511CA962697901290ED07C
:107680009BB2DB05DB0D2385EB8D013B9BB2EB85CC
:10769000002B0CD1013323750133A37507E051781A
:1076A00009020B430232AA62EBE701232375B307F9
:1076B00006D50223237500223133EA54FB071AD47E
:1076C000730765D5AB8D9BB2002B5FD0638BDBB2AC
:1076D0001A0714D43F221340002B34D09A0711D537
:1076E0001A223223EA54303B63837B0750D52800AB
:1076F0006B6998474CE02800EB689847E0E7372231
:107700001340E9E75A0705D51E223223EA542E3BDF
:107710006383EAE7DA0705D513223223EA54313BC3
:107720006383E2E7DA0605D542223223EA54223B9C
:107730006383DAE720221A42D7D021323223EA5477
:10774000123B6383D1E7238DDB05DB0DDAB2696A77
:107750000A706A6A511C69626979012910D0AB8D7F
:10776000013B9BB2AB85002B12D104332375002261
:107770002E33EA54BB070BD528002B69984707E046
:107780001B0A53706B6A01336B62E8E704232375AD
:10779000F30604D5102323752376FB060ED4B30617
:1077A00004D52023237523763B070BD4330704D558
:1077B000082323752376BB0608D4F8BD2800EB699F
:1077C0009847ECE72800AB699847EFE72B6A280059
:1077D0009847F2E7101D002010B5082803D8800054
:1077E0001D4B1B589F46002034E01C4B186931E0AC
:1077F0001B4B187D0007800F431C1A48584329E093
:10780000164B586926E0154B1B6800209B0721D5B5
:10781000134980225200CB681342FCD00F4B1A68E8
:1078200024231340042B01D00F4813E000200F4BFA
:1078300098470A4B9B681B041B0C58430AE02823FB
:10784000074AD35C00209B0704D5044BD86801E0AD
:107850008020000210BDC046F40E0100E4000020AC
:10786000000C004000093D00006CDC02297D000096
:1078700070B50B4C237D8578467802780321114042
:1078800089000C2293430B430B3A32409201402172
:107890008B431343ED017F2213402B43237570BDAF
:1078A000000C0040082803D88000294B1B589F4635
:1078B00017204BE0274A137D02210B43137500204C
:1078C00044E0254A936902210B43936100203DE087
:1078D000204A138A02210B431382002036E01E4AFD
:1078E000536902210B43536100202FE01B490B68B1
:1078F000022213430B60174B1A831900FE32CB6828
:107900001342FCD0154A9168124B19625268DA6131
:1079100000221A8319000132FF32CB681342FCD0D7
:107920000E4B1B689BB20B4A138300200EE00949E3
:1079300028228B5C022003438B5408003821263A0E
:10794000435C1342FCD1002000E000207047C04699
:10795000180F0100000C004000100040E40000205F
:10796000082832D880001A4B1B589F46194A137DAD
:1079700002218B43137500207047174A9369022137
:107980008B4393610020F7E7124A138A02218B434D
:1079900013820020F0E7104A536902218B435361A0
:1079A0000020E9E70D4B1A6802218A431A601B6820
:1079B0009BB2084A13830020DEE7064928228B5C2D
:1079C000022083438B540020D6E71720D4E7C0461B
:1079D0003C0F0100000C004000100040E4000020BB
:1079E000F0B5CE46474680B585B0802252003D4B6B
:1079F0009A60FD3A3C4B9A603C4A53681E218B4387
:107A000053608023DB059B78022B09D08023DB05A4
:107A100001229A7101329A701A009379002BFCD0DE
:107A200001A901254D6000244C700C724C72032397
:107A30000B7000202E4B984706202E4B98476B4624
:107A40005C701D709C7068462B4B984706202B4B32
:107A5000984724491022CB681A42FCD001AC012679
:107A6000029600256570062399462370257265727B
:107A7000210000201E4B984698471A4A137D80210A
:107A80000B4313751E4B98471E4FBE717E713E719E
:107A9000666065704B462370257265722100002078
:107AA000C0470020184B98470020184B9847397959
:107AB000C9B2174B9847174B98420ED88023DB0565
:107AC0009B78002B09D08023DB0501229A710022CC
:107AD0009A701A009379002BFCD005B00CBC90462C
:107AE0009946F0BD000C00400014004000400041E9
:107AF0003D7B00006179000071780000A5780000EE
:107B0000197B000000040040E97B0000297C000094
:107B10006DEC0000001BB700064A536940210B437F
:107B200053610122044B1A7019000B781342FCD1E7
:107B30007047C046000400400018004070B50400C3
:107B40000D784B78002B02D08023DB001D434B7A4D
:107B5000002B02D080231B011D43486801280FD948
:107B6000431E184231D102282DD9022300220132AE
:107B70005B009842FBD880235B011D431204154330
:107B80000B7A002B02D080239B011D430426A640C4
:107B90001149124A4B6813401E42FBD1104B9847C3
:107BA000A4000D4B9C466444226A80235B001A406B
:107BB0002A4322626146094A4B6813401E42FBD1A8
:107BC000084B984770BD0022D5E7000480239B0036
:107BD00018430543D4E7C04600180040FC070000E6
:107BE000456200008562000010B504000422824056
:107BF00009480A4943680B401A42FBD1084B984791
:107C0000A400054B9C466444226A80235B00134316
:107C10002362044B984710BD00180040FC07000089
:107C20004562000085620000F8B50400042282402D
:107C30001248134943680B401A42FBD1114B984735
:107C40000E4F0834A400E0590007000F0E4B984770
:107C50000600E559ED04ED0FE459240C0B4B984751
:107C6000002D07D1012C07D921003000084B98477F
:107C7000060001E00134E6403000F8BD0018004085
:107C8000FC07000045620000D97700008562000013
:107C90006DEC000010B50400094B9847A000094B9B
:107CA0009C4660448022835840210B4383504031DE
:107CB000403A43581A42FCD0034B984710BDC04687
:107CC00045620000001800408562000010B5040005
:107CD000094B9847A000094B9C466044802283587A
:107CE00040218B4383504031403A43581A42FCD1E3
:107CF000034B984710BDC046456200000018004085
:107D00008562000070B504000D00054B98472A7885
:107D10000F2313402034A400024AA35070BDC04674
:107D2000CD7C00000018004010B50400064B9847B9
:107D30002034A400054BE4582407240F044B984733
:107D40002000044B984710BD456200000018004019
:107D500085620000297C000030B5D378002B35D136
:107D60001378802B29D01B06802464022343547887
:107D70000225AC4306D19478002C20D18024A402A3
:107D8000234341605478013C012C1CD90D042D0C77
:107D9000A024E4052C431C4384620D0CD02424064B
:107DA0002C431C438462D478002C22D15B031CD565
:107DB0009378012B1ED0416117E00023D7E7C02440
:107DC000E4022343DDE70D4C2340DFE741600C0470
:107DD000240CA023DB05234383620C0CD0231B0659
:107DE00023438362D378002B03D15378013B012BCB
:107DF00002D930BD8161F8E78160FAE7FFFFFBFF40
:107E000010B50A00C1090023002904D14309DB0190
:107E100005498C4663441F242040012181401800FD
:107E2000024B984710BDC04600280040597D000015
:107E30007047FFFF10B5054B9847054B9847054B1A
:107E40009847054B9847054B984710BDE1790000CE
:107E5000B5620000317E000071640000317E0000D8
:107E6000931C9B001950022A09D0032A0CD001232D
:107E700093401A00037E1343037600207047037E6D
:107E8000102213430376F8E7037E20221343037680
:107E9000F3E7FFFF70B58000164BC45823689D7A46
:107EA000227E637E13401D40EB0706D4AB070BD444
:107EB000EB0610D4AB0615D470BD2000A36898471C
:107EC000012322689372F1E72000E36898470223B8
:107ED00022689372ECE720002369984710232268F8
:107EE0009372E7E7200063699847236820229A721B
:107EF000E2E7C046281D002010B50020014B98473E
:107F000010BDC046957E000010B50120014B98477A
:107F100010BDC046957E000010B50220014B984769
:107F200010BDC046957E000030B585B001AA0B4B50
:107F300032CB32C2019B98420DD0029B984208D0AE
:107F40000023039A824202D0180005B030BD0233EC
:107F500002E0012300E00023DBB2F5E7880F010017
:107F6000F0B5C64600B58AB004000D001600080042
:107F7000AA4B9847804609AB1B221A705A700232EE
:107F80009A7003A9A64B0C330A0083CB83C283CB20
:107F900083C20023A360E360236163612376637679
:107FA00043469A009F4BD45025603423F35CA3765C
:107FB000F378082B08D023712B680520DB0708D540
:107FC0000AB004BC9046F0BD17204246D207F7D451
:107FD000F1E7EB7A17309B07F2D42B689B07EFD4BD
:107FE000337C002B12D1337F002B1BD143465A0028
:107FF00003A9531C9B0058584346DB005B58D9B279
:10800000042923D88B008849CB589F4602A9012315
:108010008B700022CA70327E0A704B70307D834BA9
:108020009847E0E702A901238B700022CA7024322E
:10803000B21812780A704B701F33F31818787B4B04
:108040009847D3E77A494B6918434861F378082B7E
:1080500000D185E001A933780B7009AB42469F5CE3
:108060003800744B98473800734B9847F378F2798F
:108070001343B2881343727A002A02D0802252023C
:108080001343B27A002A02D0802292021343F27A7A
:10809000002A02D0802252031343327B002A02D0EE
:1080A00080229203134371788901B278D20111437F
:1080B000194322681369002BFCD1296022681369D7
:1080C000002BFCD1B3792B73717B4B1E9941890036
:1080D000B37B002B01D00123194322681369002BC5
:1080E000FCD1FF332B71002904D022681369002BC7
:1080F000FCD16971337A6B7322681369002BFCD150
:108100002379042B59D0082B74D01720002B00D0D2
:1081100056E71369002BFCD1338DAB8222681369BB
:10812000002BFCD1738DAB8322681369002BFCD12B
:10813000B38DEB83002043E73D498B691843886189
:1081400084E73B49CB691843C8617FE738490B6A2C
:10815000184308627AE7364B596A0843586275E754
:1081600043460133022B00DD74E703ABD11C8900C9
:10817000C95802329200D358DAB2042A00D969E70A
:1081800093002E4AD3589F46294A53691943516197
:1081900060E7274A9369194391615BE7244AD369F1
:1081A0001943D16156E7224A136A1943116251E714
:1081B0001F4B5A6A114359624CE71369002BFCD1DB
:1081C0002833F35C2B7522681369002BFCD129330B
:1081D000F35CEB7622681369002BFCD12A33F35C45
:1081E0002B7722681369002BFCD12B33F35C6B7760
:1081F0000020E5E61369002BFCD1B36A6B612268AD
:108200001369002BFCD1F36AEB6122681369002B20
:10821000FCD1336B2B620020D2E6C046297F0000E0
:10822000880F0100281D0020600F0100017E000062
:1082300000040040057D0000957C0000740F0100E3
:1082400002681369002BFCD1137101680B69002BC4
:10825000FCD18033537153795BB2002BFBDB026896
:108260001369002BFCD10379042B05D0082B09D00E
:108270000020002B03D07047107DC0B2FBE7908A2E
:1082800080B2F8E75069F6E710B504682369002B5F
:10829000FCD10379042B06D0082B28D0002B13D057
:1082A0001723180010BD17230129FAD8837E002B4D
:1082B00005D0D2B2611830310A700023F1E7D2B292
:1082C000641822770023ECE717230129E9D8837E7D
:1082D000002B05D092B2183149000A530023E0E781
:1082E00092B20C3149006418A2800023D9E7172309
:1082F0000129D6D8837E002B05D106318900641868
:1083000062600023CDE70C3189000A510023C8E7E1
:10831000FEE7FFFF10B51A4A1A4B9A4211D01A0015
:10832000194B9A420DD2194A03339B1A9B08013309
:108330009B000022134812498C58845004329A4200
:10834000FAD1134A134B9A420AD2D34311495B180C
:1083500003218B4304339B18002102C29342FCD1BA
:108360000D4AFF210D4B8B4393600D4A53687F39B3
:108370000B4353600B4B98470B4B9847FEE7C046A7
:10838000D01A0100000000209C0000200400002002
:108390009C0000207C22002000ED00E00000000096
:1083A00000400041F1FB000041D60000F0B5C64698
:1083B00000B50C00904600280FD1002A11DD8F185F
:1083C000094E0A4D306821002B6898470134BC42A1
:1083D000F8D1404604BC9046F0BD01235B4298466C
:1083E000F7E78046F5E7C0463C1D0020341D00201D
:1083F000F0B5C64600B50E0015000138022810D8A9
:10840000002A11D000240C4B98460C4F43461868A4
:10841000315D3B689847002808DB0134A542F5D15F
:1084200006E00124644203E0140001E001246442F8
:10843000200004BC9046F0BD3C1D0020381D0020EB
:108440000300064A1268002A04D0044A1068C318C0
:10845000136070470249014A1160F6E7FC000020F2
:108460008042002001204042704780239B014B60E6
:1084700000207047012070470020704700BEFEE7D3
:10848000704701204042704770B582B005000E0071
:1084900000226B46DA80064C6B46991D2800A047E7
:1084A0000028F9D16B4606331B88337002B070BDCB
:1084B0008774000070B505008CB2034E21002800BF
:1084C000B0470028FAD170BD6174000010B582B0C9
:1084D0006B46DC1D012221000F48104B984772B6F5
:1084E000BFF35F8F00220E4B1A700E4B1B78217862
:1084F0000D4AD1549B2B0AD001330A4A1370012232
:10850000074B1A70BFF35F8F62B602B010BD002236
:10851000044B1A70F3E7C04600010020AD7500005F
:1085200008000020D101002034010020F0B591B0F6
:108530008023DB05009300230193FF2269460A8113
:1085400000228B72CB7201242421684644540131ED
:10855000445401314354013143540A930531435487
:108560000131435405930382C37602760277427643
:10857000132383764277C4239B03039301235B4237
:108580000C930D932D4B0E932D4B0F93E1235B0218
:1085900008932C4D2C4B1D602C4A2D4B1A602D4AF4
:1085A0002D4B1A606A462D4928002D4B98472D4FB8
:1085B0003B68986800212C4EB0473B685868002102
:1085C000B0472E683000294B98471F23184084403D
:1085D000274B1C602A68D369002BFCD13368022228
:1085E00013433360174B1B68DA69002AFCD15968C2
:1085F000802252020A435A600121124AD171DA697B
:10860000002AFCD1DA69002AFCD159688022920242
:108610000A435A6001210B4A9171DA69002AFCD1A0
:1086200014490320144B984704220C4B9A7580225E
:1086300012010F4B1A6011B0F0BDC04602001800C5
:1086400002001900000100203C1D0020B58400003C
:10865000381D002089840000341D0020000C0042D9
:10866000FD70000038000020E50201009D6C000054
:1086700000E100E0CD840000616C0000F0B583B043
:10868000060001916B469D88054C064F2A0031007B
:108690002000B8470028F9D1019803B0F0BDC046CA
:1086A00000010020F174000070B502001F4B1C781F
:1086B0001F4B1B789C421ED3E31A1E4803701D4BB0
:1086C0001878002830D09B281BD9194B1C709C208F
:1086D000184B1870081C9C2901D9174B1878C0B288
:1086E000002821D0124B1B78441EE4B20134141927
:1086F000124D00260EE020006438C31A0D480370A6
:10870000DDE7031C884200D90B1CD8B2E8E7330030
:10871000944207D0E95C117001329B2BF7D00133F2
:10872000DBB2F5E7024A137070BDC046D1010020EC
:10873000D0010020D2010020AC0F01003401002044
:10874000F0B5C64600B584B014001F00294BCB1805
:1087500040031D18002F1AD0274B5A1E95421CD8D3
:108760007A1993421FD3C91980239B01994220D8BB
:10877000224B98463E1C102F00D91026B6B232006C
:1087800029006846C047002E28D000231FE01C4B5C
:108790001C4AD9211C481D4CA0471D4B194ADA21FF
:1087A00019481A4CA0471B4B164ADB211648174C98
:1087B000A047194B134ADC211348144CA047FF2152
:1087C000914212D10133DBB29AB2964206D96A467F
:1087D000D25C002CF3D021780134F1E7BF1BBFB28B
:1087E000AD19002FC6D1012000E0002004B004BC68
:1087F0009046F0BD002100000061000057FC000021
:10880000B00F010034110100C00F010095FB000002
:10881000001001001C1001005010010010B50B4A9F
:10882000FF231A4206D10A4B0A498C4663449342FD
:1088300006D110BD084B094A59210948094CA047E7
:10884000094B064A5D210648064CA047002100005E
:108850000061000000C0FFFF80100100F010010067
:10886000C00F010095FB0000B010010070B51500AD
:108870004403134808182418124A501E84420DD885
:10888000E018824210D3C91880229201914211D877
:108890001A00210028000C4B984770BD0B4B0C4A66
:1088A00072210C480C4CA0470C4B094A7321094813
:1088B000094CA0470A4B064A74210648064CA047BB
:1088C000002100000061000057FC000000100100C2
:1088D000FC100100C00F010095FB00001C100100FE
:1088E00050100100F0B5DE4657464E464546E0B50D
:1088F00093B001929A46464C0C1940032518002B60
:1089000047D0444B5A1E954249D852465219934279
:108910004BD3D346514480239B0199424BD83E4BC5
:108920001B68002B00D098473F272F40EC1B4026A8
:10893000F61B5E4500DD5646B3B29B464022FF2142
:1089400002A8364B98473B0002AA94466344009322
:108950003604370C3A0001991800314B9847314BD7
:108960009847314E402202A92000B0470528F9D08F
:108970002E4B984753465A469E1AB6B2EC19019BA5
:108980009946B944002E3BD0244B9B46244B984635
:1089900031E0274B274A8A212748284CA047284BFB
:1089A000244A8B212448254CA047264B214A8C2160
:1089B0002148224CA047244B1E4A8D211E481F4CA3
:1089C000A0479FB24022FF2102A8D8473A0049465B
:1089D0000098C047134B9847134D402202A920002E
:1089E000A8470528F9D0114B9847F61BB6B2E419F1
:1089F000B944002E04D0331C402EE2D94023E0E7D6
:108A000013B03CBC90469946A246AB46F0BDC0466A
:108A10000021000000610000D401002069FC00007A
:108A200057FC000045620000F96600008562000006
:108A3000B00F01000C110100C00F010095FB0000F8
:108A4000001001001C1001005010010070B544031B
:108A50000C482418FF239C430B4B013B80229201BE
:108A6000A6189C4207D8094D2000A8470134FF34BE
:108A7000B442F9D170BD064B064AC2210648074CE4
:108A8000A047C0460021000000610000D16700003F
:108A9000001001001C110100C00F010095FB000037
:108AA00010B513000022014CA04710BD4187000003
:108AB00010B5014CA04710BD4187000010B5054B13
:108AC0001B68002B04D0984701235840C0B210BD4A
:108AD0000020FCE748030020012909D0002902D02A
:108AE00002290DD070470A4B1A8880181880F9E7C0
:108AF000074A13880F33C0180F2398431080F1E7FB
:108B0000034A13883F33C0183F2398431080E9E796
:108B10004E03002030B5002919D0FF2413E02300B4
:108B2000150A6B401D096B4012025A401D036A4032
:108B30005B015A4092B203005D1EAB41C01801397F
:108B400089B2002903D00028E9D00378E8E71000B3
:108B500030BDFFFFF0B5DE46574680B589B00190C5
:108B600002919346109A002A0DD092469A445B4493
:108B70009DB25E46029C0120AB453ED0224F002CA8
:108B800008D1002039E000229246F0E704AB5C896E
:108B9000002C31D0102304AA21000198B84704AB5F
:108BA0009A88AA42F2D2DB88D3189BB2B342EDD99D
:108BB000AB4201D21E00E9E7A91A89B2B24215D927
:108BC00004AB5B8903930B00ED1AADB25246002A49
:108BD00008D010340919D21A9246C91A89B20198DC
:108BE000094CA047AE420DD0039CC8E7AB1B9BB21B
:108BF0005E46029A0392E7E7002009B00CBC924659
:108C00009B46F0BD0120F8E76D880000F0B5DE4618
:108C1000474680B587B0049005919579D3791B02BA
:108C20001D43177953791B021F432C0A64B2002C91
:108C30002FDB1C4B03931C4B984611E0002D2AD0D0
:108C40001A4B00932B003A0005990498184EB04730
:108C5000002820D0290015E0013C64B2631C1AD022
:108C6000002CEBD0013DFF3DADB2104B00938023B3
:108C70005B003A00059904980D4EB0470028EBD0F0
:108C8000802149007F18BFB2039A0848C04703906B
:108C9000E2E7044B0393039807B00CBC90469B4655
:108CA000F0BDC046FFFF0000158B00000802002049
:108CB000558B000070B5164B1C78002C26D0154B38
:108CC0001B88834216D00123124EDAB294421BD97C
:108CD0001D00591C9A00B25A824201D00B00F4E7E1
:108CE0009B000C48C018AD000A4B5D196B88002B27
:108CF00003D070BD07480025F5E7074B074A8C21D4
:108D0000FF310748074CA0470020F2E70020F0E7BA
:108D10004403002024030020B01101009812010038
:108D2000CC11010095FB000010B5054B98470028B9
:108D300004D08378C0780002184310BD0020FCE7FF
:108D4000B58C000010B504000E4B984700280BD1DD
:108D50000D4B1B78072B0ED8591C0B4A11700B4872
:108D60009B001C52C01810BD094B0A4ACC21490077
:108D700009480A4CA0470A4B064A9A21FF31064887
:108D8000064CA047B58C00004403002024030020BB
:108D900058110100A8120100CC11010095FB000040
:108DA0007411010010B50B4B984700280BD00A4BEB
:108DB00019780139C9B219708900084B5918042271
:108DC000074B984710BD074B074AD3214900074876
:108DD000074CA047B58C000044030020240300206A
:108DE00057FC000094110100B8120100CC110100E1
:108DF00095FB000010B5054B9847002800D010BD2A
:108E0000034B1878034B9847F9E7C046BD8A00002A
:108E1000090000204D8A000010B5084C2078084B4E
:108E200098472078802292010021064B984700281D
:108E300003D080225200044B1A8010BD4C03002046
:108E40004D8A0000A18A00004E030020F0B583B0D7
:108E500001900D001600074F387813000A000199A1
:108E6000054CA047387833002A000199034CA047ED
:108E700003B0F0BD4C030020E5880000B18A00007B
:108E800010B586B001AC4123A3701333E370013BEE
:108E90002371053B63712833A371443BE371039055
:108EA000C0430490084B1B882382084A10216B465C
:108EB000981D074B98472080122221000020054B67
:108EC000984706B010BDC04646030020FFFF0000D3
:108ED000158B00004D8E0000F8B504000D00214AEE
:108EE0001388CB189BB21380FF2B2ED91E4B1A88E8
:108EF000801880256D00AA1A1C491D4B98471D4BF0
:108F000018882A0021001C4B9847051E27D00021F5
:108F100080204000194B9847134B188800221A8074
:108F2000104B1E88013EFF3EB6B21E80002E16D0AA
:108F300080214900091A89B20C4B591832002000CF
:108F40000B4B9847084B1E8009E0074E3788C01925
:108F50000A000649064B9847ED193580012528007F
:108F6000F8BDC04604020020D801002008020020FD
:108F700057FC00004E0300204D8E0000D98A0000EF
:108F8000F0B5DE4657464E464546E0B5D5B07B487F
:108F90007B4B984700237B4A13807B4A13807B4A94
:108FA00013807B4A13807B4B1B781F000393122393
:108FB0000FAA00213800784CA047119B0993754CEB
:108FC0002500260008E03370724B1B78BB420BD0A3
:108FD000724B984700280DD123780133DBB2012B67
:108FE000F1D900232B70EFE76D4B6E4A6E496F4845
:108FF0006F4CA0476F4B1B78002B6AD00023069361
:109000000133FF3399466A46D3826B4B1033089382
:10901000069B07939F00694B9C4667447B881D0015
:10902000049310230BAA2900039880465A4CA047AA
:109030000BAE0023B3803489F4807381B381103484
:10904000A4B23200290040465D4B984730805D4A0B
:109050000E210BA85C4B9847F081574D4A46FF21E3
:1090600028005A4B98472B0007CE07C332681A6076
:10907000574B1B88454A12889B187B804C4504D966
:10908000002610234C4A904668E00BAB1B89089AD7
:1090900000920022049903984E4EB047002863D0F6
:1090A000079B9D00454B5D19494B1B88374A128829
:1090B0009B186B80210014A8474B9847002853D079
:1090C000069B0133DBB21A0006933A4B1B7893429E
:1090D0009ED82F4B1A88002A06D03D4B188814A919
:1090E0003E4B9847041E40D0294B188800213C4B2A
:1090F0009847374B1A883B4B1A80099801383A4BEE
:109100009847041E31D002210020354B9847374B39
:109110006A46127B1A70364D2800194B9847280072
:10912000344B984721E0ADB2EF1ABAB293464344AC
:1091300000931300320004990398264FB847002883
:1091400012D0290014A8244B984700280CD0641B87
:10915000A4B25E44B6B20023002CB1D0251C4C450D
:10916000E1D96A46D58ADEE70024200055B03CBC30
:1091700090469946A246AB46F0BDC046F00100209D
:1091800041C600001C0300201E030020D80100205F
:10919000040200204C0300206D880000198E00009E
:1091A00050110100D4120100D5030000CC110100C0
:1091B00095FB000044030020080200202403002047
:1091C0000D8C0000FFFF0000158B000069FC000003
:1091D0004E030020558B0000D98E00004D8E0000FC
:1091E000D98A000046030020818E0000090000207B
:1091F00008030020ADC6000010B5074B98470028B3
:1092000000D010BD054B9847054B064A2C21FF3175
:109210000548064CA047C046BD8A0000818F00006B
:109220005011010080120100CC11010095FB0000DB
:1092300010B5124B1A8880239B019B1A9BB2834264
:1092400003D30F4A93420AD910BD0E4B984700280A
:10925000FAD10D4B0D4A0E490E480F4CA0470F484E
:109260000F4B98470028EFD10C4B0E4A1A610E4A5B
:109270005A609A6000221A73E6E7C0464E03002047
:109280000F080000818F000050110100E41201005E
:109290004E040000CC11010095FB0000F0010020FD
:1092A00081C60000F991000010270000F0B5DE46ED
:1092B00057464E464546E0B58BB0774B9847052359
:1092C000002807D018000BB03CBC90469946A24637
:1092D000AB46F0BD714B1888002846D1704B1B88F7
:1092E000002B00D1D0E06E4B18886E4B9847834618
:1092F000002800D1CAE08278C3781B02134319000A
:109300000393694B1878102306AA684CA047634B57
:109310001A88002A2ED0664B1B88059306AB1B8942
:1093200006A90A81191C934200D9111C8BB206AA06
:10933000002191801089D080518191811C001034CE
:10934000A4B25C4961CA61C112680A6080225200FD
:10935000944239D900261023802252009146694652
:109360004A82514A92461A0088E0103080B2524B2D
:109370009847B8E706AB1889103080B24E4B984733
:10938000474B1888474B98478346002815D082786A
:10939000C3781B0213431900039306AC424B1878A1
:1093A00010232200414DA847414B1B880593238978
:1093B0003A4A1288002ABAD0B2E7404B404A91217B
:1093C000C9004048404CA047374A1078394A10320B
:1093D0000092002203993D4CA0470123002800D1B0
:1093E00070E7344906AB0A00180070C870C2006804
:1093F0001060DA88103292B22D4B1888344B98479F
:109400000023002800D15DE706ABD888103080B279
:109410000221304B98470023214A13801F4A1380B2
:109420005B46059999700B0A5A46D370002349E7A9
:10943000ADB2AF1ABBB21900534618781D4B9B183A
:10944000009302910B0032000399204FB847002887
:109450001ED0174B18882A0016491D4B9847002824
:1094600018D0022128001B4B9847641BA4B2029914
:109470008C466644B6B20022002CCCD0251C4C454C
:10948000D6D96B465D8AD3E700231BE7002319E793
:10949000012317E7002315E7BD8A00001E03002003
:1094A0001C030020B58C00004C0300206D880000D8
:1094B0004E030020080200203192000040110100FC
:1094C000FC120100CC11010095FB0000558B00003F
:1094D0004D8E0000D98A000010B5014B984710BD91
:1094E000AD920000F0B5DE4657464E464546E0B523
:1094F00083B004008A46464D80225200FF21280096
:10950000444B9847444EA379E1790902194332004C
:109510005046424FB8472070000A607032000E215A
:109520002000B847A073000AE07310222100280031
:109530003B4B9847A379E27912021A431500103584
:10954000ADB25346002B12D080235B009D4209D957
:109550000026102780235B009B466A46D3802C4B55
:10956000994645E051462A4810302D4B9847A3793B
:10957000E27912021A43103280235B009A4200DD26
:109580001A0092B2274B18882149274B98478046EA
:10959000002833D0A379E07900021843103080B25C
:1095A0000221224B9847404603B03CBC9046994666
:1095B000A246AB46F0BDA4B24B46D819E21B5346B7
:1095C0009919174B9847174B188822004946164B94
:1095D000984780460028E6D002212000134B984788
:1095E0002D1BADB2E41B3619B6B20027002DDAD020
:1095F0002C1C5D45DFD96B46DC88DCE7A379E0797C
:1096000000021843103080B20221084B9847CAE785
:109610000802002069FC0000FFFF0000158B00001D
:1096200057FC00004E0300204D8E0000D98A000038
:10963000F0B5CE46474680B591B00022B34B1A70C4
:10964000002401235B429946FF27B14E12230BAA47
:1096500000212000B0470D9D0E9B01936B4001330C
:109660001DD00134E4B2022CF0D1FF2F57D0A94B0A
:109670001F704346012B00D17BE04346022B6AD189
:1096800080225200A44B1A80122306AA002138001F
:109690009F4CA047A04DA14B98462E000FE102AB76
:1096A00026229B181B78412BDBD102AB01329B1881
:1096B0001B78542BD5D102AB01329B181B78532B4E
:1096C000CFD102AB01329B181B784E2BC9D102AB14
:1096D00001329B181B78762BC3D102AB01329B1849
:1096E0001B78312B06D102AB9B8C002BB9D1012307
:1096F00098460FE0322BB4D1894A1021262002ABC4
:109700009C466044874B984702AB9B8C8342A8D110
:10971000022398464D45A4D2A9462700A1E700227E
:109720007C4B1A70804C814E814D06E0794A13784B
:109730000133DBB21370012B15D8A0470028F5D0F8
:1097400001235B42338002204042A8470028EDD02D
:1097500000226E4B1A700122764B1A7011B00CBCAD
:1097600090469946F0BD744B744A75497548764CDD
:10977000A0471022684B1A801021664E644D694F35
:1097800072E006AB1B88002B07D006ABD8881030E0
:1097900080B20121614B984761E006AB5C882000F4
:1097A0006A4B9847002810D05B4B1A7882705B7820
:1097B000C37006AB1B89002B0BD006ABD8881030CA
:1097C00080B20121554B984749E02000604B9847F3
:1097D000EAE720005F4B9847EFE74F4B19884D4B66
:1097E000187802AA5C4B984702AB1B88834207D0CB
:1097F00002ABD888103080B22100484B98475EE019
:1098000002AB5F883800514B9847002810D0424B7C
:109810001A7882705B78C37002AB1B89002B0BD067
:1098200002ABD888103080B221003C4B984746E00C
:109830003800474B9847EAE73800464B9847EFE730
:1098400006ABDC89364A0C21122002AB9C466044F0
:10985000B847844295D001211020304B98472E4BB9
:1098600019883E4B994212D806AC3078102322005A
:10987000A8472378FF2BE3D106AB1F2102AA944609
:1098800061445A78FF2ADBD101338B42F9D1344B42
:109890009847002800D05EE7274B324A32492948D2
:1098A000294CA04702ABDF891D4A0E2118001D4B31
:1098B0009847874291D021001020184B98472B8859
:1098C000264A934200D946E706AA128A14498A42D8
:1098D00002D000249A4203D802210020C04702246B
:1098E00031880C4B1878102302AA094FB84702ABF5
:1098F0001B78FF2BD6D102AB0F219C4661445A78CE
:10990000FF2ACFD101338B42F9D124E74403002051
:109910006D8800004C0300204E030020D98A00000F
:10992000FFFF0000158B0000198E00004603002089
:10993000818E000020030020501101000813010057
:109940002B050000CC11010095FB0000B58C000038
:10995000458D0000A58D00000D8C0000FF1F00004C
:10996000818F0000C81201003603000010B5084BBB
:109970001B78002B08D0074B074A1A61074A5A6028
:109980009A6000221A7310BD054B9847F3E7C04652
:109990002003002008030020F58D0000581B000064
:1099A00031960000F0B5CE46474680B587B004003A
:1099B000019115001F0000280CD0002B0AD0354B58
:1099C0009847052300280BD0180007B00CBC904620
:1099D0009946F0BD304B314A31493248324CA047AC
:1099E0002800103080B2314B98472000304B984708
:1099F000060003230028E7D08378C47824021C43A0
:109A0000A0462C4B1878102302AA21002A4CA0470C
:109A100002AB1989019B5A1904238A42D4D802AB9C
:109A20006A4692889A80DD8042465A818D422CD0C7
:109A300002AB9B89013302AA9381204B1C88390019
:109A400002A81F4B984701230028BDD0B470240AF8
:109A5000F47002AB9A890023642AB5D902AB5A8804
:109A6000184B1A800022184B1A801848184B984738
:109A700000230028A8D1154B164A1A61164A5A60CD
:109A80009A6000221A7300239EE7002302AA9381A2
:109A9000D3E7C046BD8A0000601201002C1301000C
:109AA00096050000CC11010095FB000031920000EA
:109AB000B58C00004C0300206D8800004E03002090
:109AC000E59400001C0300201E030020DC010020A0
:109AD00081C60000D9940000B80B0000F0B583B037
:109AE0000C0015001E00002809D0002B07D0104BD9
:109AF00098470323002808D1180003B0F0BD0D4B90
:109B00000D4A0E490E480F4CA04762190E49013309
:109B10008A42F1D80D4B1F7800962B0022000100DD
:109B200038000B4CA047434243419B00E4E7C0464A
:109B3000298D0000601201003C130100EE050000B9
:109B4000CC11010095FB0000FFFF00004C0300203A
:109B5000558B000010B584B0002805D00A4B9847FB
:109B6000011E07D104B010BD084B094A09490A4833
:109B70000A4CA0470A4B187810236A46094CA047A4
:109B80006B461889EEE7C046298D0000541201008B
:109B90004C1301000B060000CC11010095FB0000E6
:109BA0004C0300206D880000F0B585B004000E0065
:109BB0001500431E9BB22E4A93421ED880231B01E0
:109BC00099421AD82B4B984700281DD020002A4BC9
:109BD0009847864207D0294B1C80294B1E80294B71
:109BE0009847031E15D1002D40D02B0032000021D4
:109BF0002000254CA04703000BE0244B244AAA2157
:109C0000C9002448244CA047244B9847052300282A
:109C100002D0180005B0F0BD3000103080B2204BEB
:109C20009847204B1B78072B19D81F4B1F886B4672
:109C30005C8000236A469380D6801681538193818D
:109C400029006846194B984701230028E1D02000DD
:109C5000174B984787703F0AC7700223D9E7154B07
:109C60000B4AAF21C9000B480B4CA0470023D0E79B
:109C7000FEEF0000298D0000559B00001C03002012
:109C80001E030020AD920000DD9A000014120100B6
:109C900018130100CC11010095FB0000BD8A0000E3
:109CA00031920000440300204E030020E5940000A0
:109CB000458D000074110100F0B5C64600B50400E2
:109CC0001C4B98470523002803D0180004BC90467D
:109CD000F0BD002C05D0184CA0470120A047002360
:109CE000F3E7164B1B78002B22D0154C013BDEB25C
:109CF0000136B600A6190025124F134B984602E014
:109D00000434A64206D02088B842F9D0C0470135B5
:109D1000EDB2F5E70023002DD7D00C4B9847002378
:109D20000028D2D10A4B0B4A0B490C480C4CA047D7
:109D30000023CAE7BD8A00004D8A000044030020CA
:109D400024030020FF0F0000A58D0000818F00007C
:109D500050110100641301006B060000CC110100DA
:109D600095FB000010B5034B9847431E9841C0B2C5
:109D700010BDC046298D0000F0B5D646474680B5D7
:109D800087B00F00204B984212D0430415D4C3086B
:109D9000CF1807231840063B83403A7813433B70A3
:109DA00001230193019807B00CBC90469A46F0BD80
:109DB000FE230B70FD3B0193F4E704A9134B984776
:109DC00001900028EED004AB9B889846002BE9D088
:109DD000002402AB9D1D0E4B9A4607266100049B92
:109DE0009C46614402222800D0472988CA08BA1834
:109DF000314001238B4011780B4313700134E4B2DE
:109E0000A3B24345EAD3CDE70240000019A2000007
:109E100057FC0000F0B5D646474680B589B007A983
:109E200000230B70274B9847061E43D00024264F73
:109E3000264B9A46264B984610E0264B264AAB21E5
:109E400049002648264CA047264B234A6821FF316B
:109E50002248234CA0470134082C2BD007AB1B7899
:109E6000E340DB07F7D5A5B203A92800B8470028CF
:109E70001FD003AB5B88002BDFD0049B002BDCD012
:109E8000059B002B00D098472800D047019003ABDA
:109E9000049A59882800C047022811D00028D3D13D
:109EA00003AB5A880499019B28000F4DA84700284E
:109EB000D1D10026300009B00CBC90469A46F0BDC6
:109EC0000026F7E7799D000079A10000559B00006E
:109ED000A99B00007813010070140100B413010065
:109EE00095FB000000140100D5A1000010B5054944
:109EF000054B9847041E01D1200010BD0020034BE4
:109F00009847F9E754030020799D000025A100003F
:109F100010B5034B984743425841C0B210BDC046EC
:109F2000B99C0000F0B585B03E4B1B780133072289
:109F300013403D4A177838001E003A00DA40D20735
:109F400031D40133DBB20722072501242B401E0048
:109F50000100D9400C4226D10133DBB2013AD2B222
:109F6000002AF3D10124E400E41820002F4B984785
:109F7000002824D1694620002D4B9847002838D06E
:109F8000029B002B00D09847019A6B46598820000D
:109F9000284B9847FD2318422BD0274B274AEB210B
:109FA0002748284CA0470122B24097431E4A177009
:109FB0000021254A11701B4A13700024D3E769461B
:109FC00020001B4B9847002813D06B465B88002B62
:109FD00015D0019B002B12D0029B002B00D098477C
:109FE000019B6A46528800212000184CA047002897
:109FF0000CD10D4B1B78002B0FD105B0F0BD144BCD
:10A00000144A9A2149000E480E4CA047124B114A9F
:10A01000A12149000A480B4CA04700200F4B98474C
:10A02000EBE7C0465503002054030020659D000067
:10A0300079A10000A99B0000001401004814010050
:10A04000B413010095FB000050030020A599000007
:10A0500078130100601401008014010025A10000A4
:10A06000F0B585B003A900230B700C4B9847019005
:10A07000002810D0002403AD0127094E02E001346E
:10A08000082C08D02B78E3401F42F8D0A0B2B0478C
:10A090000028F4D10190019805B0F0BD799D000031
:10A0A000659D000010B5024B9847024B984710BDC4
:10A0B0001D8800006D99000070B584B00124124E17
:10A0C000124D09E0124B134A50311348134CA0476C
:10A0D0000134A4B2082C14D069462000B0470028EF
:10A0E000F6D06B4659880029ECD000222000A84702
:10A0F000FD231842ECD00A4B064A5B210648074C68
:10A10000A04704B070BDC04679A10000A99B000023
:10A110009C140100F4140100B014010095FB000030
:10A1200000140100034A0123834011780B4313708C
:10A130007047C0465603002070B50D4B1D78002DAA
:10A1400012D02800EB0710D4002301240133DBB226
:10A1500019000200DA401442F8D001238B405D4020
:10A16000034B1D70034B984770BD0021F5E7C046B7
:10A1700056030020259F0000F0B587B0019102AA88
:10A18000104B110070CB70C11B680B6013888342A9
:10A1900011D00D4B02AA11001C00E0CCE0C12468D4
:10A1A0000C601188814206D0103308498B42F2D1ED
:10A1B000002007B0F0BD102202A90198044B984777
:10A1C0000120F6E7006100001061000080610000DE
:10A1D00057FC000010B584B09A4208D06946094B7C
:10A1E0009847002803D06B461B7BDB0702D5012074
:10A1F00004B010BD044B054ABC21FF310448054C96
:10A20000A047C04679A10000141501000415010003
:10A210004015010095FB000070B582B00C006B4644
:10A22000084A694660CA60C1DA880023824202D0C7
:10A23000180002B070BD082269462000024B984702
:10A240000123F5E77061000057FC0000024B187015
:10A250000122024B1A707047041E00205703002091
:10A2600010B50278084B1A7042785A700A78074C79
:10A2700022704A7862701888054B98472088054BF1
:10A280009847012010BDC046C41D0020201E00209C
:10A2900071B2000051B20000F0B5C64600B5A6B0DC
:10A2A00006000C009C462C992509230700D0013597
:10A2B0004920414B1870002302A803700D334370EE
:10A2C000827000223C4B8F5CD0184770100002AFA8
:10A2D000B84640448F5CC7710132082AF3D1634607
:10A2E0006A46D371D379344843724246D370634689
:10A2F0001B041B0E8372137163461B021B0EC37279
:10A30000537163461B0E037393710023D3730422AE
:10A3100042738373C4732949294B9847002306A9C4
:10A3200002AA9A5C5A540133102BF9D12700103736
:10A33000102F0ADD102006A9F218103A12780A54DC
:10A340000133DBB21800BB42F6DB23001033DBB273
:10A350001A00013529018B4207DA06AC0020A0540F
:10A360000133DBB21A008B42F9DB00220027002DFB
:10A3700015DD114E1201002306A98C189919E25C13
:10A38000087842400A700133102BF7D10B490A4874
:10A390000B4B98470137FFB23A00AF42EADB00238C
:10A3A00008480549CA5CC2540133102BFAD126B0C3
:10A3B00004BC9046F0BDC046D41D0020901501009D
:10A3C00069B300000C1E0020F0B5DE4657464E462D
:10A3D0004546E0B599B003908A4614001D000F78F9
:10A3E0003E093B0700D001363A00039904A83E4BD2
:10A3F00098473E4B5B68009323002A00390003987E
:10A400003B4DA84753461B781A00350031018B425B
:10A4100007DA04A8002686540133DBB21A008B4207
:10A42000F9DB012210AB1A70304B5868002310AAD8
:10A43000D218C15C51700133082BF8D110AB5C729B
:10A44000220A9A72220CDA72240E1C7304225A73A6
:10A4500000229A73DA736B1C984600239B46029382
:10A460004346002B31DD14AC10AD224B9946224EF1
:10A4700017E01A5DC75C7A40C2540133102B07D035
:10A480000029F6D11A5D6746FF5C7A40F254F4E782
:10A490000131E973029F0137FBB202939B464345AA
:10A4A00013DA00235A5D1A550133102BFAD11349E0
:10A4B0002000C847E97B584601380001002304AA60
:10A4C000944660440E4A9446DAE753461A7804A943
:10A4D0000398054B9847012019B03CBC904699461B
:10A4E000A246AB46F0BDC04657FC0000CC1D002084
:10A4F00099A2000069B30000F41D0020901501002E
:10A500000C1E0020084B1A78084B1B7800209A423A
:10A5100000D07047044B5878044B5B78C01A434214
:10A520005841C0B2F5E7C046F41D00201C1E0020B3
:10A53000F0B5DE4657464E464546E0B59DB0049020
:10A5400005919346069326AB1B7807930C78250953
:10A55000230700D001352200049908A8434B9847EF
:10A56000230028002D01AC4207DA08AA0021D154AB
:10A570000134E4B22300AC42F9DB012214AB1A70BF
:10A5800000235C4614AAD218E15C51700133082BF9
:10A59000F8D1A34614AB069959720A0A9A720A0CAA
:10A5A000DA720A0E1A7304225A7300229A73DA734B
:10A5B000431C99460025002398464B46002B2EDD70
:10A5C00018AC14AE2A4B9A462A4F43460393A8462A
:10A5D00014E01A5DE95C4A40EA540133102B04D0C0
:10A5E0000028F6D11A5DFA54F7E70130F073039DA5
:10A5F0000135EBB2039398464B4510DA00239A5D80
:10A600001A550133102BFAD11B492000D047F07B9B
:10A610004246013A1201002308A98D18E0E7059B84
:10A6200019780439C9B219705B460093069B079AE2
:10A6300008A8124CA0470023114D0E4C1148E25CB3
:10A64000C15C4A40EA540133102BF8D1059B1A78BB
:10A6500008A90498054B98470B4B98471DB03CBC84
:10A6600090469946A246AB46F0BDC04657FC000056
:10A6700069B30000E41D00209015010099A20000BC
:10A68000F41D00200C1E002005A5000010B50028B8
:10A6900009D10B781A2B07D8044A13701800044B01
:10A6A0009847012000E0002010BDC046221E002077
:10A6B000C9B2000070B582B06C46009001911B4B8E
:10A6C00098471B4D2B006A4603CA03C3194B984792
:10A6D00006000120184B9847184B1E706868184BED
:10A6E0009847184B00221A704E215A544E315A5432
:10A6F0004E315A5423785B070AD4134C002323604D
:10A700000120124B984701232360012002B070BD45
:10A7100001200F4B98470C4A13688021C9008C46D2
:10A72000634413600120094B9847EEE789B10000AC
:10A73000CC1D0020F5B200003DB20000401D0020FD
:10A7400095B300003C1E0020081E0020ED9E000076
:10A75000159E0000F0B5DE4657464E464546E0B52C
:10A760008BB0041C0390049115002D0A05920093F0
:10A7700015AB1B789A46E4B2A306DB0F984602910C
:10A78000D7B2EDB2630700D50127082323401A0092
:10A79000534253415B421D4003232340012B3AD0D7
:10A7A0005A425A41D2B2914603AA5289A74909880E
:10A7B000914233D000229346073216000836002F0C
:10A7C00000D0961C002D38D00236F2B2019224221D
:10A7D0001440202C35D0032B38D003AB4246520115
:10A7E0001C7820218C4314431C70230736D414ABEF
:10A7F0001B78019AD618964B1E70954B4A465A7094
:10A80000E3439B073DD0002F5DD0002D43D088222D
:10A810008F4B9A7042E003229146C5E78D498A42E8
:10A8200007D040224946114389463F3A93460432B5
:10A83000C3E7002293460732BFE70836F2B201921F
:10A84000C5E7043A494611438946C4E70125002378
:10A8500098469B46994607330193BEE708234A462C
:10A860001A4391467C4B1A684B4614A900987B4EBC
:10A87000B04714AB1B780933019AD618744B1E707D
:10A88000BBE7734B80229A7075490A78501C087098
:10A89000DA7004233EE0C8226D4B9A70704B1A7830
:10A8A000511C19706A4BDA7003AA917A1971D27A25
:10A8B0005A71630729D402990A78654B9A714A78CC
:10A8C000DA71082326E0002D0FD0614B8C229A709C
:10A8D00063490A78501C0870DA7003AA917A1971DA
:10A8E000D27A5A71630710D48FE0594BCC229A70F8
:10A8F0005B490A78501C0870DA7003AA917A1971C2
:10A90000D27A5A71630700D47CE0514BFF229A71CE
:10A91000DA7108235A46002A09D15A1CD2B24C498E
:10A920004A480478CC540233DBB240788854002D76
:10A9300000D175E0464A4B490878D0549C1CE4B2DB
:10A940000133DBB24978D15403AA43465901137845
:10A95000202083430B4313701B071BD522000023C9
:10A960003B4E3D4D511CE85CB0540133CAB2042B40
:10A97000F8D1251DEDB2384A136801331360DBB2FC
:10A98000002B02D153789B0759D00534E4B2002242
:10A990002F4B5A5514AB1A78002A54D0009BA2189A
:10A9A000D2B22B4D611C187828550133CCB2944299
:10A9B000F8D1274B2C4908789854501CC0B24C78D9
:10A9C0001C54901CC0B28C781C540332D2B2C9788B
:10A9D0009954264A00991160254A16991160254A12
:10A9E0005146117007A800220270234A826043601A
:10A9F000224B984701200BB03CBC90469946A2469A
:10AA0000AB46F0BD002F00D055E700231048029C54
:10AA1000E15C1A1891710133082BF9D1063379E7FB
:10AA2000174A526818000830C0B2094D5C1CE4B2E5
:10AA30001178E95401322300A042F7D184E70120C4
:10AA4000104B9847A1E72200B3E7C046201E002024
:10AA5000441D0020FFFF0000081E0020C9A30000C5
:10AA6000401D0020C41D0020F41D002060030020B4
:10AA7000580300205C0300204DA20000ADB0000090
:10AA8000CC1D0020ED9E0000044B1B78032B04D846
:10AA90004E2253430021024A995470470A00002075
:10AAA0003C1E0020F0B583B0FF22C94B1A70C94B81
:10AAB0001B78002B00D02DE24E33C64AD35C002B0E
:10AAC0000BD19C33D35C002B30D1EA33D35C002014
:10AAD0000324002B02D103B0F0BD0124BC4B1C7039
:10AAE0000020032CF7D820004E226243B94B9B185C
:10AAF0005D7840210D40B84A00211170D1730139B1
:10AB000011829B7833229343DAB2882A00D116E16E
:10AB10000ED9DAB2C82A4CD0CC2A00D1DEE08C2A79
:10AB200000D165E1AD4B98470020D4E70224D5E77A
:10AB3000082B00D190E1802AF4D1A74A1378042190
:10AB40000B43802149420B4313700123D373A14966
:10AB50004D3358430D182E7916746D7955745C4336
:10AB6000A31D5B185360435C0B3B137308346418DC
:10AB70009460974B1A784E235A43964B9B185B78F8
:10AB80001B0700D588E1924B18784E214143914A2A
:10AB90005218527807231340012B00D199E1002B62
:10ABA00000D1B1E1032B00D1A6E18C4B98470020E6
:10ABB00091E74E226243874B9B189B79FF2B6BD00A
:10ABC000854A117880235B420B431370002D70D0AF
:10ABD00080494E2358430D182E7916746D7955749B
:10ABE0005C43230008335B185360435C133B1373CF
:10ABF000103464189460764B1A784E235A43754B80
:10AC00009B185B781B07BED5734B9B685E7836023A
:10AC10001A7816439A78120471490E401643DB786D
:10AC20001B063602360A1E43002500246D4F3B6882
:10AC30005819037A7F2B00D932E10134E4B20A3586
:10AC4000052CF4D164490B7B053BDBB20B738868A0
:10AC5000C3185C78644A14709C785470DC789470E3
:10AC60001B79D3704A680C310530594B1C784E2340
:10AC70005C43584B1B195B78009333005B4CA04737
:10AC8000002800D122E1544B9A6805329A601A7864
:10AC900008210A431A7076E74E2262434D4B9B18F7
:10ACA000DB79FF2B8CD14C4A137804210B431370B2
:10ACB00086E7494A47494E2358430D182E7A1674A1
:10ACC0006D7A55745C4323000A335B185360435C10
:10ACD000153B13731234641894608CE73E4A117864
:10ACE00080235B420B431370002D13D039494E2350
:10ACF00058430D182E7916746D7955745C432300F2
:10AD00000E335B185360435C193B1373163464189D
:10AD1000946070E7304A2F494E2358430D18AE7B9C
:10AD20001674ED7B55745C43230010335B1853603D
:10AD3000435C1B3B13731834641894605BE74E222A
:10AD40006243244B9B189B79FF2B1ED0224B197812
:10AD5000802252420A431A700122DA73002D21D157
:10AD60001A001C494E2358430D182E7A16746D7A1A
:10AD700055745C4323000A335B185360435C0F3BFC
:10AD800013730C3464189460F3E64E226243114B43
:10AD90009B18DB79FF2BD9D10F4A137804210B4381
:10ADA0001370D3E70C4A0B494E2358430D182E79E4
:10ADB00016746D7955745C43230008335B18536037
:10ADC000435C0D3B13730A3464189460D1E6C046AB
:10ADD0000A0000203C1E0020901F002089AA0000CD
:10ADE000FFFF00FF240000201C1E002031A50000F2
:10ADF0004B4B1978802252420A431A700122DA73AF
:10AE0000002D14D01A0047494E2358430D182E79AF
:10AE100016746D7955745C4323000D335B185360D1
:10AE2000435C133B1373103464189460A1E63C4AEE
:10AE30003C494E2358430D186E7B1674AD7B5574F8
:10AE40005C4323000F335B185360435C153B137363
:10AE50001234641894608CE64E226243314B9B1886
:10AE60009B79FF2B0BD02E492E4D4E235843425D2C
:10AE70000A3A0A73634308335B198B6079E64E2202
:10AE80006243284B9B18DB79FF2BECD1244A1378C3
:10AE900004210B431370E6E7234B984700201AE682
:10AEA0001F4B5968214B9847002800D1C5E6042C58
:10AEB00000D9C7E6A3001E4A9B58B34203D8A4009A
:10AEC0001B4BE650BEE6184B9847E7E7164B9847F2
:10AED000E4E7134A137803218B431370114B4E227E
:10AEE0004243D05C0E499B181A18013A12788A73B3
:10AEF0001B5C4B730120EEE5094A137803218B4359
:10AF000001210B431370E9E7054A137803210B4332
:10AF10001370E3E70022074B1A700024E3E5C046F4
:10AF2000901F00203C1E002089AA000085B8000068
:10AF3000B81F00200A000020054B1B78002B04D00E
:10AF4000830018188300C018704732335843FBE75A
:10AF50000D00002010B50B4B98470B4B1B68002BC6
:10AF600003D00A4A1278002A00D110BD084A12689C
:10AF7000084909780848007898470022034B1A705E
:10AF8000F3E7C046B5B30000580300205703002084
:10AF900060030020041E00205C030020074B18788B
:10AFA000030703D44007C00F6438704714231840C8
:10AFB0001438434258416238F7E7C0466603002020
:10AFC00010B5114B1A783C231340104A1370104CE3
:10AFD000217814200F4B98472378002B05D00E4B77
:10AFE000197813200B4B984710BD08200B4B98473E
:10AFF0001F2301009943084B18780143C9B2082068
:10B00000044B9847F0E7C046A21C002066030020CE
:10B0100064030020BDCD000065030020C1CC00000A
:10B02000F8B504000F4B1B78022B16D00E4F0F4EB5
:10B030001F2503210220B8470120B04728400828D7
:10B04000F7D1094F094E1F2521000220B8470120E2
:10B05000B04728408442F7D1F8BD80225203044B08
:10B060005A61E3E7E9030020BDCD0000C1CC000038
:10B070000028004010B50820084B98470F20084BC7
:10B080009847084B1B78002B00D110BD1620034BAE
:10B0900098470122044B1A70F7E7C04621B0000020
:10B0A000C1CC0000E8030020E903002070B50500D2
:10B0B0001020094B9847041E09D004300C222900A7
:10B0C000064B984721000648064B984770BDAB6871
:10B0D00001209847FAE7C04629C3000057FC00004A
:10B0E000301E002005C5000010B51E4B1B7A002B3A
:10B0F00004D01D4B1B78013B012B00D910BD002152
:10B1000018481A4B9847041EF8D083681B787F2B89
:10B1100023D81920164B98470F20164B9847A26842
:10B12000137802331370A36819780139C9B2180073
:10B13000114B984703220C4B1A70104B802252037C
:10B140009A61C046C0465A610D4B22791A70E26876
:10B150009A6020000B4B9847D0E7C36801209847BE
:10B16000CCE7C046301E0020E90300203DC50000AA
:10B1700021B00000C1CC0000EDCF0000002800404D
:10B18000241E0020E5C3000070B5214B9847214BD9
:10B1900098470023204A1370204A13700C20204B3C
:10B1A00098473F2318401F4B187001221E4B1A70FE
:10B1B0001E4E1B4D1F2408210220B0470120A84726
:10B1C00020400828F7D12E210438184CA0470C2124
:10B1D0000D20A047164D2978802319430C20A04745
:10B1E0002B78083BDAB2362A08D89300114AD35894
:10B1F0009F46022116200D4B984703E0032116209D
:10B200000A4B98470C4B19780520084B984770BD9E
:10B2100075CB000091CC0000E803002064030020FF
:10B22000C1CC000066030020E9030020BDCD000072
:10B23000A21C0020A0150100A31C002010B5024B89
:10B240001870024B984710BDE803002075B000004D
:10B2500030B583B06B469D1DD880C1B22220034C0F
:10B26000A04769782320A04703B030BDBDCD0000C2
:10B2700070B582B06B469E1DD880C4B221002020DC
:10B28000054DA847767831002120A847A419E1B2DE
:10B290002D20A84702B070BDBDCD000010B5074BF2
:10B2A0001B78022B00D010BD80225203044B5A6140
:10B2B000044B98470122014B1A70F4E7E903002080
:10B2C0000028004075B0000010B5064B1870064B02
:10B2D0001B78022B02D0054B984710BD044B9847B2
:10B2E000F9E7C04665030020E9030020C1AF000074
:10B2F0009DB20000F0B5C64600B582B01520154BD2
:10B3000098470190802149420143C9B21520124B50
:10B3100098470620114B984700250024104B98466B
:10B320000C4F03260120C0470620B8474009304093
:10B33000A8400443A4B20235102DF3D1094B98471D
:10B3400001991520044B9847200002B004BC904698
:10B35000F0BDC046C1CC0000BDCD000021B0000052
:10B360001962000075B0000010B50400080000224A
:10B370000021054B984700212000044B98472000EE
:10B38000034B984710BDC0460DCA0000A1C900007C
:10B3900045CB000070B505002424054E2978200017
:10B3A000B04701350134E4B22C2CF7D170BDC04652
:10B3B000BDCD0000F0B585B0404B9847404B1B78A1
:10B3C000022B0AD00F203F4B9847030705D53C4B73
:10B3D0001B78012B03D0032B54D005B0F0BD3A4BA2
:10B3E0001D78002D0FD04E23374AD35C002B09D097
:10B3F0009C23D35C002B43D0EA23D35C0325002B92
:10B40000EBD100E0012507202E4B9847019002ABBD
:10B41000DE1D012130002D4B984731784BB2002BB7
:10B4200026DB0231C9B22A48284B98472F0002ABCD
:10B43000D879861CF6B24E235D43234BEE544C2E36
:10B4400016D802300122012329001F4D6D18204C0F
:10B45000A15CA9540133DBB21A009842F8DA1D4B03
:10B4600098474E237B43184FFF18019B1C18BC556F
:10B47000144D1F240120A84720401628FAD1ACE71C
:10B480000225C0E702200F4B98474009C0B20028B0
:10B4900004D003280DD005280DD001200E4CA36840
:10B4A00098470023A3600D4B98470122044B1A7064
:10B4B00093E70220F2E70320F0E7C046E9B000007E
:10B4C000E9030020C1CC00003C1E0020BDCE0000DE
:10B4D000680300209DAF0000241E002075B000000E
:10B4E00010B51000014B984710BDC046E5C30000E1
:10B4F00010B50124084B1C70084B1B681B69002BFE
:10B5000005D09847054B1868054B984710BD1000AB
:10B51000034B9847F6E7C046180000201C20002087
:10B52000E5C3000010B51000014B984710BDC046A0
:10B53000E5C30000F8B505000E001700002109481A
:10B54000094B9847041E0CD04368002B06D0827C20
:10B55000012A03D03A003100280098472000034B0D
:10B560009847F8BD781F00203DC50000E5C30000E6
:10B57000002803D0012806D0002003E0064B1B78EA
:10B580000B7001207047054B1A880A701B881B0A34
:10B590004B700120F6E7C0460D000020B41F0020CC
:10B5A00070B50D000024002801D0200070BD054BAF
:10B5B0009847041EF9D02A78034B1A700420034BD5
:10B5C0009847F2E78DA600000D000020ED9E0000D8
:10B5D000F0B585B00500012252420E236B441A805B
:10B5E0000023404A1370404A1060404A1160404AAC
:10B5F0001380037B002B54D101223E4B1A703E4B2B
:10B600001A883B4B1A80002400263C4F2B681B19DC
:10B610001E722B68181908223100B8470A34322CE0
:10B62000F4D1374B00221A605A609A60DA601A61CE
:10B63000002401AA137802210B4387210B404021EB
:10B640000B43DBB204210B43C6210B40137001985E
:10B650002C492D4B98472D4B1B78FF2B03D02B49A2
:10B6600000202B4B984722490E206844294B9847CD
:10B67000294A2A4B1B781B0111780B431370284869
:10B68000FA239B00836001230373264B0361264B3F
:10B6900098472648264DA8472648A847200005B0C9
:10B6A000F0BD2548254B9847002804D02248244B5C
:10B6B0009847002801D1234B98470D4B1B88013B2D
:10B6C0009BB2214A934297D807220A4B1A701F4B0C
:10B6D0001B68002B03D0002098470F24A9E70F24F4
:10B6E000A7E7C046DC1F0020A41F0020A81F0020E1
:10B6F000B41F0020F40300201A00002069FC0000A1
:10B70000B81F002010000020B5A600000D0000208A
:10B71000A1B5000061A200000C0000200B00002079
:10B72000FC03002079BB0000ADC60000781F00209C
:10B73000F9C40000841F00200140000061A0000047
:10B74000159E0000B9A00000FDFF0000B01F002002
:10B7500010B5032800D910BD064B1870064A1178A1
:10B760000F230B400001184310700520034B98472E
:10B77000F1E7C0460B0000200C000020ED9E000009
:10B7800030B583B015001C00284B1B78042293436E
:10B790000022012B02D0100003B030BD0232234B37
:10B7A0001A70012837D0002808D0022837D001208D
:10B7B000A04701221D4B1A700022ECE700226B46C5
:10B7C0005A716B46981D01235B4203801849194B3F
:10B7D0001B880B80184B9847EB070DD46B465979A3
:10B7E0000131C9B2012200E0190052004B1CDBB24A
:10B7F0002A42F9D06B4659716B46591D00200F4BF8
:10B8000098470722094B1A700D480E4B98470020A5
:10B81000A0470122BFE70120A0470022BBE701208B
:10B82000A0470122014B1A700022B4E7F403002064
:10B83000B41F00201A00002061A20000A1B5000082
:10B8400001400000ED9E0000002803D0024B18606C
:10B85000012070470020FCE7F8030020084B1B681C
:10B860001B6819003231002002E00A338B4205D0F8
:10B870001A7A7F2AF9D90130C0B2F6E77047C0467C
:10B88000A41F002010B502780B789A4209D1012339
:10B89000C45CCA5C944206D10133082BF8D1012064
:10B8A00010BD0020FCE70020FAE7FFFFF0B5C64618
:10B8B00000B582B00190334B5E68334B1B681D6846
:10B8C000FF2700240AE029003000304B9847002869
:10B8D0004FD10134E4B20A35052C06D02B7A7F2BE8
:10B8E000F1D8FF2FF5D12700F3E70024FF2F43D035
:10B8F000274B1B78002B40D1264B1F70BB00DB1958
:10B900005B0098461E0000231E4D1F486A68D15CEC
:10B9100002681268D21891550133082BF6D11A4BE0
:10B920001A6813684344187A802149420143197206
:10B93000136843440121019801401E7A0120864387
:10B940000E431E720F4B9B68D9781368434459729B
:10B95000BA000021104BD150104B1F703800104B13
:10B960009847104B9847104B187007200F4B98477B
:10B9700003E027000124B9E7F124200002B004BC51
:10B980009046F0BD0C200020A41F002085B80000C8
:10B990000B000020D81F0020B81F0020741F0020BB
:10B9A00059E600005DB80000EA030020ED9E0000AB
:10B9B000F0B5DE4657464E464546E0B583B0050035
:10B9C0006846C18017009A460CAB1E780DAB1B78F9
:10B9D00098460FAB1B78994610AB1B789B462820E6
:10B9E000304B9847041E5BD0032352461340037626
:10B9F0000023002D00D15B46012213405B019C46D1
:10BA0000237E20218A468B43100028408000614617
:10BA10000B4304218B431640F60003430820834365
:10BA20000021193021545146655401214D402A40CE
:10BA300092011E4340239E43324380267642324386
:10BA40002276E7616B46DB886384002F08D0D3B28F
:10BA50005B071ED42000083008223900124B98479B
:10BA60000E9B636123000833E361119B236125234F
:10BA70004A46E254013B4246E25421000B480C4B3B
:10BA80009847012003B03CBC90469946A246AB467D
:10BA9000F0BD2000083002223900034B9847DFE751
:10BAA0000020EFE729C3000057FC0000CC1F002056
:10BAB00005C5000010B586B0264BDB78002B11D1F0
:10BAC000244B5878062801D0002836D10722224B73
:10BAD0001A70204BDB68984700221E4BDA60042066
:10BAE00006B010BD1C4B1B78042BE9D105201B4B65
